{
    "contractName": "Imprint",
    "abi": [
        {
            "inputs": [],
            "stateMutability": "nonpayable",
            "type": "constructor"
        },
        {
            "inputs": [
                {
                    "internalType": "address",
                    "name": "sender",
                    "type": "address"
                },
                {
                    "internalType": "uint256",
                    "name": "balance",
                    "type": "uint256"
                },
                {
                    "internalType": "uint256",
                    "name": "needed",
                    "type": "uint256"
                },
                {
                    "internalType": "uint256",
                    "name": "tokenId",
                    "type": "uint256"
                }
            ],
            "name": "ERC1155InsufficientBalance",
            "type": "error"
        },
        {
            "inputs": [
                {
                    "internalType": "address",
                    "name": "approver",
                    "type": "address"
                }
            ],
            "name": "ERC1155InvalidApprover",
            "type": "error"
        },
        {
            "inputs": [
                {
                    "internalType": "uint256",
                    "name": "idsLength",
                    "type": "uint256"
                },
                {
                    "internalType": "uint256",
                    "name": "valuesLength",
                    "type": "uint256"
                }
            ],
            "name": "ERC1155InvalidArrayLength",
            "type": "error"
        },
        {
            "inputs": [
                {
                    "internalType": "address",
                    "name": "operator",
                    "type": "address"
                }
            ],
            "name": "ERC1155InvalidOperator",
            "type": "error"
        },
        {
            "inputs": [
                {
                    "internalType": "address",
                    "name": "receiver",
                    "type": "address"
                }
            ],
            "name": "ERC1155InvalidReceiver",
            "type": "error"
        },
        {
            "inputs": [
                {
                    "internalType": "address",
                    "name": "sender",
                    "type": "address"
                }
            ],
            "name": "ERC1155InvalidSender",
            "type": "error"
        },
        {
            "inputs": [
                {
                    "internalType": "address",
                    "name": "operator",
                    "type": "address"
                },
                {
                    "internalType": "address",
                    "name": "owner",
                    "type": "address"
                }
            ],
            "name": "ERC1155MissingApprovalForAll",
            "type": "error"
        },
        {
            "inputs": [
                {
                    "internalType": "address",
                    "name": "owner",
                    "type": "address"
                }
            ],
            "name": "OwnableInvalidOwner",
            "type": "error"
        },
        {
            "inputs": [
                {
                    "internalType": "address",
                    "name": "account",
                    "type": "address"
                }
            ],
            "name": "OwnableUnauthorizedAccount",
            "type": "error"
        },
        {
            "anonymous": false,
            "inputs": [
                {
                    "indexed": true,
                    "internalType": "address",
                    "name": "account",
                    "type": "address"
                },
                {
                    "indexed": true,
                    "internalType": "address",
                    "name": "operator",
                    "type": "address"
                },
                {
                    "indexed": false,
                    "internalType": "bool",
                    "name": "approved",
                    "type": "bool"
                }
            ],
            "name": "ApprovalForAll",
            "type": "event"
        },
        {
            "anonymous": false,
            "inputs": [
                {
                    "indexed": true,
                    "internalType": "address",
                    "name": "previousOwner",
                    "type": "address"
                },
                {
                    "indexed": true,
                    "internalType": "address",
                    "name": "newOwner",
                    "type": "address"
                }
            ],
            "name": "OwnershipTransferred",
            "type": "event"
        },
        {
            "anonymous": false,
            "inputs": [
                {
                    "indexed": true,
                    "internalType": "address",
                    "name": "operator",
                    "type": "address"
                },
                {
                    "indexed": true,
                    "internalType": "address",
                    "name": "from",
                    "type": "address"
                },
                {
                    "indexed": true,
                    "internalType": "address",
                    "name": "to",
                    "type": "address"
                },
                {
                    "indexed": false,
                    "internalType": "uint256[]",
                    "name": "ids",
                    "type": "uint256[]"
                },
                {
                    "indexed": false,
                    "internalType": "uint256[]",
                    "name": "values",
                    "type": "uint256[]"
                }
            ],
            "name": "TransferBatch",
            "type": "event"
        },
        {
            "anonymous": false,
            "inputs": [
                {
                    "indexed": true,
                    "internalType": "address",
                    "name": "operator",
                    "type": "address"
                },
                {
                    "indexed": true,
                    "internalType": "address",
                    "name": "from",
                    "type": "address"
                },
                {
                    "indexed": true,
                    "internalType": "address",
                    "name": "to",
                    "type": "address"
                },
                {
                    "indexed": false,
                    "internalType": "uint256",
                    "name": "id",
                    "type": "uint256"
                },
                {
                    "indexed": false,
                    "internalType": "uint256",
                    "name": "value",
                    "type": "uint256"
                }
            ],
            "name": "TransferSingle",
            "type": "event"
        },
        {
            "anonymous": false,
            "inputs": [
                {
                    "indexed": false,
                    "internalType": "string",
                    "name": "value",
                    "type": "string"
                },
                {
                    "indexed": true,
                    "internalType": "uint256",
                    "name": "id",
                    "type": "uint256"
                }
            ],
            "name": "URI",
            "type": "event"
        },
        {
            "inputs": [
                {
                    "internalType": "address",
                    "name": "account",
                    "type": "address"
                },
                {
                    "internalType": "uint256",
                    "name": "id",
                    "type": "uint256"
                }
            ],
            "name": "balanceOf",
            "outputs": [
                {
                    "internalType": "uint256",
                    "name": "",
                    "type": "uint256"
                }
            ],
            "stateMutability": "view",
            "type": "function"
        },
        {
            "inputs": [
                {
                    "internalType": "address[]",
                    "name": "accounts",
                    "type": "address[]"
                },
                {
                    "internalType": "uint256[]",
                    "name": "ids",
                    "type": "uint256[]"
                }
            ],
            "name": "balanceOfBatch",
            "outputs": [
                {
                    "internalType": "uint256[]",
                    "name": "",
                    "type": "uint256[]"
                }
            ],
            "stateMutability": "view",
            "type": "function"
        },
        {
            "inputs": [
                {
                    "internalType": "address",
                    "name": "account",
                    "type": "address"
                },
                {
                    "internalType": "uint256",
                    "name": "id",
                    "type": "uint256"
                },
                {
                    "internalType": "uint256",
                    "name": "value",
                    "type": "uint256"
                }
            ],
            "name": "burn",
            "outputs": [],
            "stateMutability": "nonpayable",
            "type": "function"
        },
        {
            "inputs": [
                {
                    "internalType": "address",
                    "name": "account",
                    "type": "address"
                },
                {
                    "internalType": "uint256[]",
                    "name": "ids",
                    "type": "uint256[]"
                },
                {
                    "internalType": "uint256[]",
                    "name": "values",
                    "type": "uint256[]"
                }
            ],
            "name": "burnBatch",
            "outputs": [],
            "stateMutability": "nonpayable",
            "type": "function"
        },
        {
            "inputs": [],
            "name": "contractURI",
            "outputs": [
                {
                    "internalType": "string",
                    "name": "",
                    "type": "string"
                }
            ],
            "stateMutability": "pure",
            "type": "function"
        },
        {
            "inputs": [
                {
                    "internalType": "address",
                    "name": "account",
                    "type": "address"
                },
                {
                    "internalType": "address",
                    "name": "operator",
                    "type": "address"
                }
            ],
            "name": "isApprovedForAll",
            "outputs": [
                {
                    "internalType": "bool",
                    "name": "",
                    "type": "bool"
                }
            ],
            "stateMutability": "view",
            "type": "function"
        },
        {
            "inputs": [
                {
                    "internalType": "address",
                    "name": "account",
                    "type": "address"
                },
                {
                    "internalType": "uint256",
                    "name": "id",
                    "type": "uint256"
                },
                {
                    "internalType": "uint256",
                    "name": "amount",
                    "type": "uint256"
                },
                {
                    "internalType": "bytes",
                    "name": "data",
                    "type": "bytes"
                }
            ],
            "name": "mint",
            "outputs": [],
            "stateMutability": "nonpayable",
            "type": "function"
        },
        {
            "inputs": [
                {
                    "internalType": "address",
                    "name": "to",
                    "type": "address"
                },
                {
                    "internalType": "uint256[]",
                    "name": "ids",
                    "type": "uint256[]"
                },
                {
                    "internalType": "uint256[]",
                    "name": "amounts",
                    "type": "uint256[]"
                },
                {
                    "internalType": "bytes",
                    "name": "data",
                    "type": "bytes"
                }
            ],
            "name": "mintBatch",
            "outputs": [],
            "stateMutability": "nonpayable",
            "type": "function"
        },
        {
            "inputs": [],
            "name": "owner",
            "outputs": [
                {
                    "internalType": "address",
                    "name": "",
                    "type": "address"
                }
            ],
            "stateMutability": "view",
            "type": "function"
        },
        {
            "inputs": [],
            "name": "renounceOwnership",
            "outputs": [],
            "stateMutability": "nonpayable",
            "type": "function"
        },
        {
            "inputs": [
                {
                    "internalType": "address",
                    "name": "from",
                    "type": "address"
                },
                {
                    "internalType": "address",
                    "name": "to",
                    "type": "address"
                },
                {
                    "internalType": "uint256[]",
                    "name": "ids",
                    "type": "uint256[]"
                },
                {
                    "internalType": "uint256[]",
                    "name": "values",
                    "type": "uint256[]"
                },
                {
                    "internalType": "bytes",
                    "name": "data",
                    "type": "bytes"
                }
            ],
            "name": "safeBatchTransferFrom",
            "outputs": [],
            "stateMutability": "nonpayable",
            "type": "function"
        },
        {
            "inputs": [
                {
                    "internalType": "address",
                    "name": "from",
                    "type": "address"
                },
                {
                    "internalType": "address",
                    "name": "to",
                    "type": "address"
                },
                {
                    "internalType": "uint256",
                    "name": "id",
                    "type": "uint256"
                },
                {
                    "internalType": "uint256",
                    "name": "value",
                    "type": "uint256"
                },
                {
                    "internalType": "bytes",
                    "name": "data",
                    "type": "bytes"
                }
            ],
            "name": "safeTransferFrom",
            "outputs": [],
            "stateMutability": "nonpayable",
            "type": "function"
        },
        {
            "inputs": [
                {
                    "internalType": "address",
                    "name": "operator",
                    "type": "address"
                },
                {
                    "internalType": "bool",
                    "name": "approved",
                    "type": "bool"
                }
            ],
            "name": "setApprovalForAll",
            "outputs": [],
            "stateMutability": "nonpayable",
            "type": "function"
        },
        {
            "inputs": [
                {
                    "internalType": "string",
                    "name": "newuri",
                    "type": "string"
                }
            ],
            "name": "setURI",
            "outputs": [],
            "stateMutability": "nonpayable",
            "type": "function"
        },
        {
            "inputs": [
                {
                    "internalType": "bytes4",
                    "name": "interfaceId",
                    "type": "bytes4"
                }
            ],
            "name": "supportsInterface",
            "outputs": [
                {
                    "internalType": "bool",
                    "name": "",
                    "type": "bool"
                }
            ],
            "stateMutability": "view",
            "type": "function"
        },
        {
            "inputs": [
                {
                    "internalType": "address",
                    "name": "newOwner",
                    "type": "address"
                }
            ],
            "name": "transferOwnership",
            "outputs": [],
            "stateMutability": "nonpayable",
            "type": "function"
        },
        {
            "inputs": [
                {
                    "internalType": "uint256",
                    "name": "_tokenId",
                    "type": "uint256"
                }
            ],
            "name": "uri",
            "outputs": [
                {
                    "internalType": "string",
                    "name": "",
                    "type": "string"
                }
            ],
            "stateMutability": "pure",
            "type": "function"
        }
    ],
    "bytecode": "608060405234801561000f575f80fd5b50336040518060600160405280603f81526020016122ed603f9139610033816100b5565b506001600160a01b03811661006257604051631e4fbdf760e01b81525f60048201526024015b60405180910390fd5b61006b816100c5565b5061008e336001600f60405180602001604052805f81525061011660201b60201c565b6100b0336002600a60405180602001604052805f81525061011660201b60201c565b610958565b60026100c18282610715565b5050565b600380546001600160a01b038381166001600160a01b0319831681179093556040519116919082907f8be0079c531659141344cd1fd0a4f28419497f9722a3daafe3b4186f6b6457e0905f90a35050565b6001600160a01b03841661013f57604051632bfa23e760e11b81525f6004820152602401610059565b604080516001808252602082018690528183019081526060820185905260808201909252906101715f87848487610179565b505050505050565b610185858585856101d3565b6001600160a01b038416156101cc57825133906001036101be57602084810151908401516101b7838989858589610260565b5050610171565b61017181878787878761038a565b5050505050565b6101df84848484610471565b6003546001600160a01b03163314806101ff57506001600160a01b038316155b61025a5760405162461bcd60e51b815260206004820152602660248201527f546f6b656e206e7520706f617465206669207472616e7366657261742c20646f60448201526561722061727360d01b6064820152608401610059565b50505050565b6001600160a01b0384163b156101715760405163f23a6e6160e01b81526001600160a01b0385169063f23a6e61906102a490899089908890889088906004016107fd565b6020604051808303815f875af19250505080156102de575060408051601f3d908101601f191682019092526102db91810190610841565b60015b610345573d80801561030b576040519150601f19603f3d011682016040523d82523d5f602084013e610310565b606091505b5080515f0361033d57604051632bfa23e760e11b81526001600160a01b0386166004820152602401610059565b805181602001fd5b6001600160e01b0319811663f23a6e6160e01b1461038157604051632bfa23e760e11b81526001600160a01b0386166004820152602401610059565b50505050505050565b6001600160a01b0384163b156101715760405163bc197c8160e01b81526001600160a01b0385169063bc197c81906103ce90899089908890889088906004016108a9565b6020604051808303815f875af1925050508015610408575060408051601f3d908101601f1916820190925261040591810190610841565b60015b610435573d80801561030b576040519150601f19603f3d011682016040523d82523d5f602084013e610310565b6001600160e01b0319811663bc197c8160e01b1461038157604051632bfa23e760e11b81526001600160a01b0386166004820152602401610059565b80518251146104a05781518151604051635b05999160e01b815260048101929092526024820152604401610059565b335f5b83518110156105a2576020818102858101820151908501909101516001600160a01b03881615610554575f828152602081815260408083206001600160a01b038c1684529091529020548181101561052e576040516303dee4c560e01b81526001600160a01b038a166004820152602481018290526044810183905260648101849052608401610059565b5f838152602081815260408083206001600160a01b038d16845290915290209082900390555b6001600160a01b03871615610598575f828152602081815260408083206001600160a01b038b16845290915281208054839290610592908490610906565b90915550505b50506001016104a3565b5082516001036106225760208301515f906020840151909150856001600160a01b0316876001600160a01b0316846001600160a01b03167fc3d58168c5ae7397731d063d5bbf3d657854427343f4c083240f7aacaa2d0f628585604051610613929190918252602082015260400190565b60405180910390a450506101cc565b836001600160a01b0316856001600160a01b0316826001600160a01b03167f4a39dc06d4c0dbc64b70af90fd698a233a518aa5d07e595d983b8c0526c8f7fb868660405161067192919061092b565b60405180910390a45050505050565b634e487b7160e01b5f52604160045260245ffd5b600181811c908216806106a857607f821691505b6020821081036106c657634e487b7160e01b5f52602260045260245ffd5b50919050565b601f82111561071057805f5260205f20601f840160051c810160208510156106f15750805b601f840160051c820191505b818110156101cc575f81556001016106fd565b505050565b81516001600160401b0381111561072e5761072e610680565b6107428161073c8454610694565b846106cc565b6020601f821160018114610774575f831561075d5750848201515b5f19600385901b1c1916600184901b1784556101cc565b5f84815260208120601f198516915b828110156107a35787850151825560209485019460019092019101610783565b50848210156107c057868401515f19600387901b60f8161c191681555b50505050600190811b01905550565b5f81518084528060208401602086015e5f602082860101526020601f19601f83011685010191505092915050565b6001600160a01b03868116825285166020820152604081018490526060810183905260a0608082018190525f90610836908301846107cf565b979650505050505050565b5f60208284031215610851575f80fd5b81516001600160e01b031981168114610868575f80fd5b9392505050565b5f8151808452602084019350602083015f5b8281101561089f578151865260209586019590910190600101610881565b5093949350505050565b6001600160a01b0386811682528516602082015260a0604082018190525f906108d49083018661086f565b82810360608401526108e6818661086f565b905082810360808401526108fa81856107cf565b98975050505050505050565b8082018082111561092557634e487b7160e01b5f52601160045260245ffd5b92915050565b604081525f61093d604083018561086f565b828103602084015261094f818561086f565b95945050505050565b611988806109655f395ff3fe608060405234801561000f575f80fd5b5060043610610105575f3560e01c8063715018a61161009e578063e8a3d4851161006e578063e8a3d48514610229578063e985e9c514610231578063f242432a14610244578063f2fde38b14610257578063f5298aca1461026a575f80fd5b8063715018a6146101e0578063731133e9146101e85780638da5cb5b146101fb578063a22cb46514610216575f80fd5b80631f7fdffa116100d95780631f7fdffa146101875780632eb2c2d61461019a5780634e1273f4146101ad5780636b20c454146101cd575f80fd5b8062fdd58e1461010957806301ffc9a71461012f57806302fe5305146101525780630e89341c14610167575b5f80fd5b61011c610117366004610ff9565b61027d565b6040519081526020015b60405180910390f35b61014261013d366004611036565b6102a4565b6040519015158152602001610126565b6101656101603660046110f4565b6102f3565b005b61017a610175366004611140565b610307565b6040516101269190611185565b610165610195366004611241565b610338565b6101656101a83660046112dd565b610352565b6101c06101bb366004611389565b6103be565b6040516101269190611484565b6101656101db366004611496565b610488565b6101656104ec565b6101656101f6366004611508565b6104ff565b6003546040516001600160a01b039091168152602001610126565b61016561022436600461154c565b610513565b61017a610522565b61014261023f366004611585565b610542565b6101656102523660046115b6565b61056f565b610165610265366004611609565b6105ce565b610165610278366004611622565b610608565b5f818152602081815260408083206001600160a01b03861684529091529020545b92915050565b5f6001600160e01b03198216636cdb3d1360e11b14806102d457506001600160e01b031982166303a24d0760e21b145b8061029e57506301ffc9a760e01b6001600160e01b031983161461029e565b6102fb61063e565b6103048161066b565b50565b606061031282610677565b6040516020016103229190611652565b6040516020818303038152906040529050919050565b61034061063e565b61034c84848484610706565b50505050565b336001600160a01b038616811480159061037357506103718682610542565b155b156103a95760405163711bec9160e11b81526001600160a01b038083166004830152871660248201526044015b60405180910390fd5b6103b6868686868661073c565b505050505050565b606081518351146103ef5781518351604051635b05999160e01b8152600481019290925260248201526044016103a0565b5f83516001600160401b0381111561040957610409611058565b604051908082528060200260200182016040528015610432578160200160208202803683370190505b5090505f5b84518110156104805760208082028601015161045b9060208084028701015161027d565b82828151811061046d5761046d6116bd565b6020908102919091010152600101610437565b509392505050565b6001600160a01b03831633148015906104a857506104a68333610542565b155b156104dc57335b60405163711bec9160e11b81526001600160a01b03918216600482015290841660248201526044016103a0565b6104e78383836107a1565b505050565b6104f461063e565b6104fd5f6107e4565b565b61050761063e565b61034c84848484610835565b61051e338383610890565b5050565b606060405180608001604052806043815260200161191060439139905090565b6001600160a01b039182165f90815260016020908152604080832093909416825291909152205460ff1690565b336001600160a01b0386168114801590610590575061058e8682610542565b155b156105c15760405163711bec9160e11b81526001600160a01b038083166004830152871660248201526044016103a0565b6103b68686868686610924565b6105d661063e565b6001600160a01b0381166105ff57604051631e4fbdf760e01b81525f60048201526024016103a0565b610304816107e4565b6001600160a01b038316331480159061062857506106268333610542565b155b1561063357336104af565b6104e78383836109b0565b6003546001600160a01b031633146104fd5760405163118cdaa760e01b81523360048201526024016103a0565b600261051e828261174d565b60605f61068383610a16565b60010190505f816001600160401b038111156106a1576106a1611058565b6040519080825280601f01601f1916602001820160405280156106cb576020820181803683370190505b5090508181016020015b5f19016f181899199a1a9b1b9c1cb0b131b232b360811b600a86061a8153600a85049450846106d557509392505050565b6001600160a01b03841661072f57604051632bfa23e760e11b81525f60048201526024016103a0565b61034c5f85858585610aed565b6001600160a01b03841661076557604051632bfa23e760e11b81525f60048201526024016103a0565b6001600160a01b03851661078d57604051626a0d4560e21b81525f60048201526024016103a0565b61079a8585858585610aed565b5050505050565b6001600160a01b0383166107c957604051626a0d4560e21b81525f60048201526024016103a0565b6104e7835f848460405180602001604052805f815250610aed565b600380546001600160a01b038381166001600160a01b0319831681179093556040519116919082907f8be0079c531659141344cd1fd0a4f28419497f9722a3daafe3b4186f6b6457e0905f90a35050565b6001600160a01b03841661085e57604051632bfa23e760e11b81525f60048201526024016103a0565b604080516001808252602082018690528183019081526060820185905260808201909252906103b65f87848487610aed565b6001600160a01b0382166108b85760405162ced3e160e81b81525f60048201526024016103a0565b6001600160a01b038381165f81815260016020908152604080832094871680845294825291829020805460ff191686151590811790915591519182527f17307eab39ab6107e8899845ad3d59bd9653f200f220920489ca2b5937696c31910160405180910390a3505050565b6001600160a01b03841661094d57604051632bfa23e760e11b81525f60048201526024016103a0565b6001600160a01b03851661097557604051626a0d4560e21b81525f60048201526024016103a0565b604080516001808252602082018690528183019081526060820185905260808201909252906109a78787848487610aed565b50505050505050565b6001600160a01b0383166109d857604051626a0d4560e21b81525f60048201526024016103a0565b604080516001808252602082018590528183019081526060820184905260a082019092525f6080820181815291929161079a91879185908590610aed565b5f8072184f03e93ff9f4daa797ed6e38ed64bf6a1f0160401b8310610a545772184f03e93ff9f4daa797ed6e38ed64bf6a1f0160401b830492506040015b6d04ee2d6d415b85acef81000000008310610a80576d04ee2d6d415b85acef8100000000830492506020015b662386f26fc100008310610a9e57662386f26fc10000830492506010015b6305f5e1008310610ab6576305f5e100830492506008015b6127108310610aca57612710830492506004015b60648310610adc576064830492506002015b600a831061029e5760010192915050565b610af985858585610b40565b6001600160a01b0384161561079a5782513390600103610b325760208481015190840151610b2b838989858589610bc7565b50506103b6565b6103b6818787878787610ce8565b610b4c84848484610dcf565b6003546001600160a01b0316331480610b6c57506001600160a01b038316155b61034c5760405162461bcd60e51b815260206004820152602660248201527f546f6b656e206e7520706f617465206669207472616e7366657261742c20646f60448201526561722061727360d01b60648201526084016103a0565b6001600160a01b0384163b156103b65760405163f23a6e6160e01b81526001600160a01b0385169063f23a6e6190610c0b9089908990889088908890600401611807565b6020604051808303815f875af1925050508015610c45575060408051601f3d908101601f19168201909252610c429181019061184b565b60015b610cac573d808015610c72576040519150601f19603f3d011682016040523d82523d5f602084013e610c77565b606091505b5080515f03610ca457604051632bfa23e760e11b81526001600160a01b03861660048201526024016103a0565b805181602001fd5b6001600160e01b0319811663f23a6e6160e01b146109a757604051632bfa23e760e11b81526001600160a01b03861660048201526024016103a0565b6001600160a01b0384163b156103b65760405163bc197c8160e01b81526001600160a01b0385169063bc197c8190610d2c9089908990889088908890600401611866565b6020604051808303815f875af1925050508015610d66575060408051601f3d908101601f19168201909252610d639181019061184b565b60015b610d93573d808015610c72576040519150601f19603f3d011682016040523d82523d5f602084013e610c77565b6001600160e01b0319811663bc197c8160e01b146109a757604051632bfa23e760e11b81526001600160a01b03861660048201526024016103a0565b8051825114610dfe5781518151604051635b05999160e01b8152600481019290925260248201526044016103a0565b335f5b8351811015610f00576020818102858101820151908501909101516001600160a01b03881615610eb2575f828152602081815260408083206001600160a01b038c16845290915290205481811015610e8c576040516303dee4c560e01b81526001600160a01b038a1660048201526024810182905260448101839052606481018490526084016103a0565b5f838152602081815260408083206001600160a01b038d16845290915290209082900390555b6001600160a01b03871615610ef6575f828152602081815260408083206001600160a01b038b16845290915281208054839290610ef09084906118c3565b90915550505b5050600101610e01565b508251600103610f805760208301515f906020840151909150856001600160a01b0316876001600160a01b0316846001600160a01b03167fc3d58168c5ae7397731d063d5bbf3d657854427343f4c083240f7aacaa2d0f628585604051610f71929190918252602082015260400190565b60405180910390a4505061079a565b836001600160a01b0316856001600160a01b0316826001600160a01b03167f4a39dc06d4c0dbc64b70af90fd698a233a518aa5d07e595d983b8c0526c8f7fb8686604051610fcf9291906118e2565b60405180910390a45050505050565b80356001600160a01b0381168114610ff4575f80fd5b919050565b5f806040838503121561100a575f80fd5b61101383610fde565b946020939093013593505050565b6001600160e01b031981168114610304575f80fd5b5f60208284031215611046575f80fd5b813561105181611021565b9392505050565b634e487b7160e01b5f52604160045260245ffd5b604051601f8201601f191681016001600160401b038111828210171561109457611094611058565b604052919050565b5f806001600160401b038411156110b5576110b5611058565b50601f8301601f19166020016110ca8161106c565b9150508281528383830111156110de575f80fd5b828260208301375f602084830101529392505050565b5f60208284031215611104575f80fd5b81356001600160401b03811115611119575f80fd5b8201601f81018413611129575f80fd5b6111388482356020840161109c565b949350505050565b5f60208284031215611150575f80fd5b5035919050565b5f81518084528060208401602086015e5f602082860101526020601f19601f83011685010191505092915050565b602081525f6110516020830184611157565b5f6001600160401b038211156111af576111af611058565b5060051b60200190565b5f82601f8301126111c8575f80fd5b81356111db6111d682611197565b61106c565b8082825260208201915060208360051b8601019250858311156111fc575f80fd5b602085015b83811015611219578035835260209283019201611201565b5095945050505050565b5f82601f830112611232575f80fd5b6110518383356020850161109c565b5f805f8060808587031215611254575f80fd5b61125d85610fde565b935060208501356001600160401b03811115611277575f80fd5b611283878288016111b9565b93505060408501356001600160401b0381111561129e575f80fd5b6112aa878288016111b9565b92505060608501356001600160401b038111156112c5575f80fd5b6112d187828801611223565b91505092959194509250565b5f805f805f60a086880312156112f1575f80fd5b6112fa86610fde565b945061130860208701610fde565b935060408601356001600160401b03811115611322575f80fd5b61132e888289016111b9565b93505060608601356001600160401b03811115611349575f80fd5b611355888289016111b9565b92505060808601356001600160401b03811115611370575f80fd5b61137c88828901611223565b9150509295509295909350565b5f806040838503121561139a575f80fd5b82356001600160401b038111156113af575f80fd5b8301601f810185136113bf575f80fd5b80356113cd6111d682611197565b8082825260208201915060208360051b8501019250878311156113ee575f80fd5b6020840193505b828410156114175761140684610fde565b8252602093840193909101906113f5565b945050505060208301356001600160401b03811115611434575f80fd5b611440858286016111b9565b9150509250929050565b5f8151808452602084019350602083015f5b8281101561147a57815186526020958601959091019060010161145c565b5093949350505050565b602081525f611051602083018461144a565b5f805f606084860312156114a8575f80fd5b6114b184610fde565b925060208401356001600160401b038111156114cb575f80fd5b6114d7868287016111b9565b92505060408401356001600160401b038111156114f2575f80fd5b6114fe868287016111b9565b9150509250925092565b5f805f806080858703121561151b575f80fd5b61152485610fde565b9350602085013592506040850135915060608501356001600160401b038111156112c5575f80fd5b5f806040838503121561155d575f80fd5b61156683610fde565b91506020830135801515811461157a575f80fd5b809150509250929050565b5f8060408385031215611596575f80fd5b61159f83610fde565b91506115ad60208401610fde565b90509250929050565b5f805f805f60a086880312156115ca575f80fd5b6115d386610fde565b94506115e160208701610fde565b9350604086013592506060860135915060808601356001600160401b03811115611370575f80fd5b5f60208284031215611619575f80fd5b61105182610fde565b5f805f60608486031215611634575f80fd5b61163d84610fde565b95602085013595506040909401359392505050565b7f697066733a2f2f516d4e7a5a323942454b796b43516f58585846656236773255815275776d447951763947544a425a546a55624a346773532f60501b60208201525f82518060208501603685015e64173539b7b760d91b6036939091019283015250603b01919050565b634e487b7160e01b5f52603260045260245ffd5b600181811c908216806116e557607f821691505b60208210810361170357634e487b7160e01b5f52602260045260245ffd5b50919050565b601f8211156104e757805f5260205f20601f840160051c8101602085101561172e5750805b601f840160051c820191505b8181101561079a575f815560010161173a565b81516001600160401b0381111561176657611766611058565b61177a8161177484546116d1565b84611709565b6020601f8211600181146117ac575f83156117955750848201515b5f19600385901b1c1916600184901b17845561079a565b5f84815260208120601f198516915b828110156117db57878501518255602094850194600190920191016117bb565b50848210156117f857868401515f19600387901b60f8161c191681555b50505050600190811b01905550565b6001600160a01b03868116825285166020820152604081018490526060810183905260a0608082018190525f9061184090830184611157565b979650505050505050565b5f6020828403121561185b575f80fd5b815161105181611021565b6001600160a01b0386811682528516602082015260a0604082018190525f906118919083018661144a565b82810360608401526118a3818661144a565b905082810360808401526118b78185611157565b98975050505050505050565b8082018082111561029e57634e487b7160e01b5f52601160045260245ffd5b604081525f6118f4604083018561144a565b8281036020840152611906818561144a565b9594505050505056fe697066733a2f2f516d4e7a5a323942454b796b43516f58585846656236773255776d447951763947544a425a546a55624a346773532f6d657461646174612e6a736f6ea2646970667358221220c395cb00849839eb2a2a669ee51ae5422ab5df09dc7f06609fa1a0ba25eec96b64736f6c634300081a0033697066733a2f2f516d4e7a5a323942454b796b43516f58585846656236773255776d447951763947544a425a546a55624a346773532f7b69647d2e6a736f6e",
    "sourcePath": "e:/Summer_2024/CalliopeProject/contracts/ImprintContract.sol",
    "compiler": {
        "name": "solc",
        "version": "0.8.26+commit.8a97fa7a"
    },
    "functionHashes": {
        "balanceOf(address,uint256)": "00fdd58e",
        "balanceOfBatch(address[],uint256[])": "4e1273f4",
        "burn(address,uint256,uint256)": "f5298aca",
        "burnBatch(address,uint256[],uint256[])": "6b20c454",
        "contractURI()": "e8a3d485",
        "isApprovedForAll(address,address)": "e985e9c5",
        "mint(address,uint256,uint256,bytes)": "731133e9",
        "mintBatch(address,uint256[],uint256[],bytes)": "1f7fdffa",
        "owner()": "8da5cb5b",
        "renounceOwnership()": "715018a6",
        "safeBatchTransferFrom(address,address,uint256[],uint256[],bytes)": "2eb2c2d6",
        "safeTransferFrom(address,address,uint256,uint256,bytes)": "f242432a",
        "setApprovalForAll(address,bool)": "a22cb465",
        "setURI(string)": "02fe5305",
        "supportsInterface(bytes4)": "01ffc9a7",
        "transferOwnership(address)": "f2fde38b",
        "uri(uint256)": "0e89341c"
    },
    "gasEstimates": {
        "creation": {
            "codeDepositCost": "1307200",
            "executionCost": "infinite",
            "totalCost": "infinite"
        },
        "external": {
            "balanceOf(address,uint256)": "2657",
            "balanceOfBatch(address[],uint256[])": "infinite",
            "burn(address,uint256,uint256)": "infinite",
            "burnBatch(address,uint256[],uint256[])": "infinite",
            "contractURI()": "infinite",
            "isApprovedForAll(address,address)": "infinite",
            "mint(address,uint256,uint256,bytes)": "infinite",
            "mintBatch(address,uint256[],uint256[],bytes)": "infinite",
            "owner()": "2367",
            "renounceOwnership()": "infinite",
            "safeBatchTransferFrom(address,address,uint256[],uint256[],bytes)": "infinite",
            "safeTransferFrom(address,address,uint256,uint256,bytes)": "infinite",
            "setApprovalForAll(address,bool)": "26745",
            "setURI(string)": "infinite",
            "supportsInterface(bytes4)": "575",
            "transferOwnership(address)": "28421",
            "uri(uint256)": "infinite"
        },
        "internal": {
            "_update(address,address,uint256[] memory,uint256[] memory)": "infinite"
        }
    }
}